:100000000C9462000C948A000C948A000C948A0070
:100010000C948A000C948A000C948A000C948A0038
:100020000C948A000C948A000C948A000C948A0028
:100030000C948A000C948A000C948A000C948A0018
:100040000C9439090C948A000C948A000C948A0050
:100050000C948A000C948A000C948A000C948A00F8
:100060000C948A000C948A00000000080002010031
:100070000003040700000000000000000000000072
:1000800023002600290000000000250028002B0086
:1000900000000000240027002A00040404040404D3
:1000A0000404020202020202030303030303010227
:1000B00004081020408001020408102001020408F6
:1000C0001020C20D11241FBECFEFD8E0DEBFCDBF80
:1000D00011E0A0E0B1E0E8E3F0E202C005900D928B
:1000E000A434B107D9F724E0A4E4B1E001C01D9223
:1000F000A13CB207E1F710E0C2E6D0E004C02197CE
:10010000FE010E940F10C136D107C9F70E94830972
:100110000C941A100C940000382FEBE0F2E02081D0
:10012000239F020E20E0211D20832181239F020EA8
:1001300020E0211D21832281239F020E20E0211D2A
:1001400022831124339684E0E83AF80741F70895B2
:1001500020E330E04BED51E0FC01DA0120FF05C067
:1001600002C001900D9201900D922250D0F73040C4
:10017000C0F7CA01089520E0DC0160FF03C001C0A0
:100180002D932D936250E0F77040D0F70895CF93F0
:10019000DF93C091BB04D091BC04209789F08A8181
:1001A0009B81009749F02D853E85B901660F771F29
:1001B000620F731F0E94BB000C80DD81C02DEDCF4C
:1001C000DF91CF910895CF93DF9390E0FC01E2554A
:1001D000FF4F249186569F4FFC0184918823C1F0E4
:1001E00090E0880F991FFC01E057FF4FC591D49113
:1001F000FC01EA57FF4FA591B4919FB7F89488810D
:10020000E22FE0958E2388838C91E823EC939FBFA7
:10021000DF91CF910895DC0117962C91179730E06C
:10022000F901E255FF4FE4911696EC931697265686
:100230003F4FF9018491E82FF0E0EE0FFF1FEA57DE
:10024000FF4F8591949113969C938E931297F90189
:100250002491E22FF0E0EE0FFF1FE458FF4F85914D
:10026000949115969C938E931497089580E991E04C
:1002700008958E50806480937C0080917A00806421
:1002800080937A0080917A0086FDFCCF809178007F
:100290009091790008953FB7F89480914E01909124
:1002A0004F01A0915001B091510126B5A89B05C006
:1002B0002F3F19F00196A11DB11D3FBFBA2FA92FE5
:1002C000982F8827BC01CD01620F711D811D911DE2
:1002D00042E0660F771F881F991F4A95D1F708954E
:1002E0002FB7F89460914A0170914B0180914C01B5
:1002F00090914D012FBF08954F925F926F927F9220
:100300009F92AF92BF92CF92DF92EF92FF920F93A4
:100310001F93CF93DF9300D01F92CDB7DEB7D82EB7
:100320008091B1049091B204A091B304B091B4044F
:10033000892B8A2B8B2BD9F00E944B010091BD0495
:100340001091BE042091BF043091C004601B710B5A
:10035000820B930B0091B1041091B2042091B3046D
:100360003091B4046017710782079307C8F20E94A6
:100370004B016093BD047093BE048093BF049093BF
:10038000C004E091B904F091BA04309759F040915B
:10039000B5045091B6046091B7047091B8048D2DE6
:1003A0000995D82EE090BB04F090BC044D2C512C44
:1003B000712C612CE114F10409F459C0D7011C9689
:1003C000CC901C978091AF049091B0048436910535
:1003D00010F41C961C92D701ED91FC91A280B38081
:1003E00019821A821B82DD2079F1F701369610E01E
:1003F00000E02191222319F19280992001F130E04F
:1004000050E040E02F5F3F4F4F4F5F4FC301B201BD
:100410000E94D00F9B01AC01892D90E0B0E0A0E0DC
:10042000BC01CD016F5F7F4F8F4F9F4F0E94D00F58
:10043000A1E0B0E0AC0FBD1FA00FB11F8C930F5F08
:100440001F4F03301105A9F609811A812B81F7018D
:100450004585568562817381C701F5010995D701EC
:100460001C96CC921C971496ED90FC90A3CF809193
:10047000AC049091AD048C010F5F1F4F1093AD043D
:100480000093AC044997B4F10E947001C090A80495
:10049000D090A904E090AA04F090AB049B01AC01B9
:1004A0002C193D094E095F0921F421E030E040E0BC
:1004B00050E088EE93E0089FB001099F700D189FEF
:1004C000700D1124072E000C880B990B0E94FC0D57
:1004D0003093B0042093AF041092AD041092AC049A
:1004E0000E9470016093A8047093A9048093AA04E9
:1004F0009093AB040F900F900F90DF91CF911F91CD
:100500000F91FF90EF90DF90CF90BF90AF909F90B2
:100510007F906F905F904F9008952F923F924F92EF
:100520005F926F927F928F929F92AF92BF92CF9283
:10053000DF92EF92FF920F931F93CF93DF93CDB78C
:10054000DEB729970FB6F894DEBF0FBECDBF8987FF
:1005500049835A836B837C830091BB041091BC0454
:10056000BDE78B2E912CA12CB12C0115110509F49E
:100570006BC0D801ED91FC910084F185E02DC8019C
:1005800009951C01D8011296ED91FC91C12CD12C3A
:100590007601412C512C320120E030E0A901009776
:1005A00091F06081260F311D411D511D6181460E64
:1005B000511C611C711C6281C60ED11CE11CF11C16
:1005C00001973396ECCFA0E5B0E00E94F10D6D836A
:1005D0007E838F839887A7E3B0E0A30192010E94F6
:1005E000F10D2B013C01ABE4B0E0A70196010E94A4
:1005F000F10D2D813E814F815885C32ED42EE52EDD
:10060000FF2445E0429D9001439D300D1124C20E10
:10061000D31EE11CF11C8C0C9D1CAE1CBF1C452C78
:10062000562C672C7724840C951CA61CB71C472FCE
:10063000582F692F7727840E951EA61EB71ED80146
:1006400014960D911C9191CFB985CB2ED12CF12C04
:10065000E12CA7019601C501B4010E94D00F872E9D
:10066000982EA92EBB2429813A814B815C81821668
:100670009306A406B50668F0A701960169817A8100
:100680008B819C810E94D00FA50194010E94FC0DDA
:100690002987898529960FB6F894DEBF0FBECDBF96
:1006A000DF91CF911F910F91FF90EF90DF90CF904E
:1006B000BF90AF909F908F907F906F905F904F9082
:1006C0003F902F900895FC01A281B3819C91868177
:1006D0002681982381E0921380E00895FC018681B1
:1006E0000280F381E02D9081809589238083089595
:1006F000FC0196810280F381E02D8081892B80832B
:1007000008951F93DC01FB017C9111965C91119778
:1007100012961C91972F990F990F990F35E5292F54
:10072000239F020E20E0211D1124822F672F607469
:10073000472F407277FD66C0611152C0411105C05C
:10074000922F9095892F90E004C025E5280F90E026
:100750008BEA5F3F09F422C0552309F474C0509519
:1007600030E0552329F0559F312D112451113F5F61
:10077000432F4095582F549F050E50E0511D852F53
:10078000249F020E20E0211D592F549F050E50E09A
:10079000511D952F1124830F230F930F1F3FD9F065
:1007A00030E0112321F0119F312D09F03F5F3323F9
:1007B00009F44DC0482F439F040E40E0411D842F93
:1007C000239F020E20E0211D592F539F050E50E05C
:1007D000511D952F11248083218392831F910895A9
:1007E00041110BC0392F2AEA329F030E30E0311D30
:1007F00011249BEA931B280FA5CF90E02095982FFA
:1008000080E0A7CF611112C041110CC0392F2AEA34
:10081000329F030E30E0311D11242BEA231B95E596
:10082000930FEECF922F909520E093CF411106C009
:1008300025E5280F9BEA981B822FF6CF2AEA280F7E
:1008400090E0932FF8CF9FEF2FEF8FEFA7CF90E09F
:1008500020E080E0C0CFCF93FC01E859FF4F249106
:10086000FC01E255FF4F3491FC01E656FF4FE49145
:10087000EE23B9F0222351F0233009F43CC088F56F
:10088000213009F43EC0223009F43FC0F0E0EE0F01
:10089000FF1FE458FF4FA591B491EC913E23C1E0B6
:1008A00009F4C0E0C170809148018C1731F00E94BA
:1008B000700170934701609346010E94700120917E
:1008C000460130914701621B730B810991096E311A
:1008D00071058105910510F4C09348018C2FCF91CB
:1008E00008952730A9F02830C9F0243079F6809196
:1008F00080008F7D03C0809180008F77809380007F
:10090000C5CF84B58F7784BDC1CF84B58F7DFBCF34
:100910008091B0008F778093B000B8CF8091B00005
:100920008F7DF9CF2F923F924F925F926F927F927D
:100930008F929F92AF92BF92CF92DF92EF92FF92EF
:100940000F931F93CF93DF9300D000D000D01F925E
:10095000CDB7DEB71C014B01C501B22E632E442E6C
:100960000617170750F44E2CE42E6D2CD32EBC2CFA
:10097000C22E292D4801062F122FEE2011F0D11082
:1009800001C0CB2C442011F0611001C0BC2C712C93
:10099000ED2DF0E0E619F709F695FE2FEE27F79515
:1009A000E795512C2E2D30E0241935093695322F3C
:1009B000222737952795CB188230910569F4C7FE19
:1009C0000DC0C1949C2D96958C2D87958827879571
:1009D00091958195910908C0892B99F79C2D969541
:1009E0008C2D8795882787957801E818F90819F4E0
:1009F000EE24E394F12CB7010E94E00F6B01CF01CC
:100A0000B7010E94E00FFB01C901B7010E94E00F8E
:100A1000CC0CDD1CCF01880F991F9D838C83CB01EB
:100A2000880F991F9F838E83EB2CF12CFE2CEE24D4
:100A3000762C6624542C442408151905E0F0F9821C
:100A40007A825B82B401660F771F680D791D620D93
:100A5000731DCE0101960E948103EC0CFD1C8C815C
:100A60009D81680E791E8E819F81480E591E9FEFD1
:100A7000891A990AE1CF27960FB6F894DEBF0FBE08
:100A8000CDBFDF91CF911F910F91FF90EF90DF903D
:100A9000CF90BF90AF909F908F907F906F905F901E
:100AA0004F903F902F900895CF92DF92EF92FF9258
:100AB000CF93DF93EC016A017B018F3F910509F031
:100AC00010F4DC2FCC270E9470019B01AC012C1983
:100AD0003D094E095F09DE010E94F10D9B01AC0149
:100AE000A8E1B1E00E94F10DDF91CF91FF90EF906E
:100AF000DF90CF900895CF93DF93EB0140E050E07B
:100B0000BA010E945405AC0123E0569547952A95F9
:100B1000E1F7577096FF06C02FEF37E0B901641B6D
:100B2000750BAB01E52FEE0FEE0FF0E0EC5DFE4F25
:100B30002081318146955281459F200D311D112420
:100B400097FF03C031952195310930582C9FB00192
:100B50003D9FC00140E03C9F700D811D941F2D9F63
:100B6000700D811D941F1124620F731F841F941F29
:100B7000DF91CF910895409100015091010125E04E
:100B800038E0429FC001439F900D529F900D112469
:100B9000875E994C9093010180930001890F08951D
:100BA0000F931F93CF93DF93209145012F5F322F37
:100BB00037703093450120FF2BC020E831FD2064C1
:100BC000347009F02062205FFC01EC01239600E004
:100BD00011E06485662329F070E0C8010E94E00FEF
:100BE0006F5F6187322F369F030E30E0311D112475
:100BF000311110C01682662311F061506187319661
:100C0000EC17FD0731F7DF91CF911F910F910895F8
:100C100020E0D4CF31503683EECF4F925F927F9257
:100C20008F929F92AF92BF92CF92DF92EF92FF92FC
:100C30000F931F93CF93DF932C01EB010E944B0185
:100C4000F20127853089621B730B6A307105B0F39E
:100C5000F8948A819B81181619060CF0CDC1E881A1
:100C6000F9816BB1862E689482F83BB13B7F3BB92A
:100C7000DA848F812D2D281B822F2F834F85042E00
:100C8000000C550BAA81BB817D85FC84EE847F5FBF
:100C9000F394E3949E819884B984AB841181C12C30
:100CA0006C2D0C2D2C2D2181112788942111280FBA
:100CB00008F42FEF8195889470FD120F1795889492
:100CC00071FD120F1795889472FD120F1795889475
:100CD00073FD120F1795889474FD120F1795889461
:100CE00075FD120F1795889476FD120F179588944D
:100CF00077FD120F17958894622F7111612F8D0D5A
:100D0000162F002C8BB800C017FF3BB92081662737
:100D1000889400C000C0002C3BB92111290F00C0ED
:100D2000002C8BB800C016FF3BB908F42FEF91954B
:100D3000889400C000C0002C3BB9F0FC620F00C0DA
:100D4000002C8BB800C015FF3BB967958894F1FC67
:100D5000620F00C000C0002C3BB96795889400C0AA
:100D6000002C8BB800C014FF3BB9F2FC620F6795F2
:100D7000889400C000C0002C3BB9F3FC620F00C097
:100D8000002C8BB800C013FF3BB967958894F4FC26
:100D9000620F00C000C0002C3BB96795889400C06A
:100DA000002C8BB800C012FF3BB9F5FC620F6795B1
:100DB000889400C000C0002C3BB9F6FC620F00C054
:100DC000002C8BB800C011FF3BB967958894F7FCE5
:100DD000620F00C000C0002C3BB96795889400C02A
:100DE000002C8BB800C010FF3BB9122FF110162F4A
:100DF0009B0D00C000C0002C3BB900C000C0002CFF
:100E00008BB800C017FF3BB922816627889400C0C9
:100E100000C0002C3BB92111290D00C0002C8BB85B
:100E200000C016FF3BB908F42FEFE40FF51F00C018
:100E300000C0002C3BB9E0FC620F00C0002C8BB856
:100E400000C015FF3BB967958894E1FC620F00C0B4
:100E500000C0002C3BB96795889400C0002C8BB86B
:100E600000C014FF3BB9E2FC620F6795889400C094
:100E700000C0002C3BB9E3FC620F00C0002C8BB813
:100E800000C013FF3BB967958894E4FC620F00C073
:100E900000C0002C3BB96795889400C0002C8BB82B
:100EA00000C012FF3BB9E5FC620F6795889400C053
:100EB00000C0002C3BB9E6FC620F00C0002C8BB8D0
:100EC00000C011FF3BB967958894E7FC620F00C032
:100ED00000C0002C3BB96795889400C0002C8BB8EB
:100EE00000C010FF3BB9122FE110162F919400C0E3
:100EF00000C0002C3BB99A0C00C000C08BB800C0E9
:100F000017FF3BB921816627889400C000C0002CE0
:100F10003BB92111280F00C0002C8BB800C016FF70
:100F20003BB908F42FEF8195889400C000C0002CD5
:100F30003BB970FD620F00C0002C8BB800C015FFDC
:100F40003BB96795889471FD620F00C000C0002C0A
:100F50003BB96795889400C0002C8BB800C014FF83
:100F60003BB972FD620F6795889400C000C0002CE9
:100F70003BB973FD620F00C0002C8BB800C013FF9B
:100F80003BB96795889474FD620F00C000C0002CC7
:100F90003BB96795889400C0002C8BB800C012FF45
:100FA0003BB975FD620F6795889400C000C0002CA6
:100FB0003BB976FD620F00C0002C8BB800C011FF5A
:100FC0003BB96795889477FD620F00C000C0002C84
:100FD0003BB96795889400C0002C8BB800C010FF07
:100FE0003BB9122F7111162F8D0D00C000C0002CBF
:100FF0003BB9119709F086CE4A815B8120EE31E042
:10100000DA010E94F40FDC01CB01F4E0B695A7955C
:1010100097958795FA95D1F730E020E0B901EAE994
:101020004E9F040E611D5E9F600D711D1124650FA2
:10103000711D860F971FA11DB11D893E43E09407C6
:10104000A105B10508F434C0885E9340A109B10937
:1010500042E0B695A795979587954A95D1F747E0D1
:10106000849F080E211D949F200D311D1124290FEE
:10107000311D6091440170E0860F971F820F931F0E
:1010800040914A0150914B0160914C0170914D018A
:10109000292F3327420F531F611D711D40934A01B1
:1010A00050934B0160934C0170934D018093440128
:1010B00078940E944B01F201708B6787DF91CF918A
:1010C0001F910F91FF90EF90DF90CF90BF90AF9066
:1010D0009F908F907F905F904F900895529A0895BF
:1010E0006F927F928F92CF92DF92EF92FF920F9347
:1010F0001F93CF93DF93CDB7DEB762970FB6F89407
:10110000DEBF0FBECDBF6C017A013801822EDC013B
:101110001C962C91CA0157FF04C088279927841B6D
:10112000950B7A8369839C838B839E838D836D86E5
:101130007E868F86213049F5CE0101960E94D0052A
:1011400083E0888B1A8A198AF7FE02C08DEF888B9C
:10115000D601ED91FC910484F585E02DBE016F5F11
:101160007F4FC601099562960FB6F894DEBF0FBE99
:10117000CDBFDF91CF911F910F91FF90EF90DF9046
:10118000CF908F907F906F9008951C861B861A8653
:10119000198618861F82D4CFEF92FF920F931F9368
:1011A000CF93DF93CDB7DEB762970FB6F894DEBF6B
:1011B0000FBECDBF7C01DC011C968C917A836983C4
:1011C0005C834B835E834D830D871E872F87813021
:1011D000F9F4CE0101960E94D005188A1A8A198A5C
:1011E000D701ED91FC910484F585E02DBE016F5F80
:1011F0007F4FC701099562960FB6F894DEBF0FBE08
:10120000CDBFDF91CF911F910F91FF90EF90089587
:101210001C861B861A86198618861F82DECF90E0F0
:1012200080E00895FC018585968508950F931F93AE
:10123000CF93DF9300D01F92CDB7DEB7AB011982F9
:101240001A821B82DC01ED91FC910190F081E02D6E
:1012500000E010E020E0BE016F5F7F4F09950F9026
:101260000F900F90DF91CF911F910F9108950E94E1
:1012700015101F920F920FB60F9211242F933F93C8
:101280008F939F93AF93BF9380914A0190914B01AD
:10129000A0914C01B0914D013091490123E0230F01
:1012A0002D3758F50196A11DB11D2093490180935A
:1012B0004A0190934B01A0934C01B0934D01809152
:1012C0004E0190914F01A0915001B09151010196B2
:1012D000A11DB11D80934E0190934F01A093500129
:1012E000B0935101BF91AF919F918F913F912F91F9
:1012F0000F900FBE0F901F90189526E8230F0296AF
:10130000A11DB11DD2CFCF93DF93CDB7DEB7EE973E
:101310000FB6F894DEBF0FBECDBF789484B582605F
:1013200084BD84B5816084BD85B5826085BD85B589
:10133000816085BD80916E00816080936E00109207
:101340008100809181008260809381008091810082
:101350008160809381008091800081608093800013
:101360008091B10084608093B1008091B000816071
:101370008093B00080917A00846080937A0080919D
:101380007A00826080937A0080917A0081608093F5
:101390007A0080917A00806880937A001092C10070
:1013A00085E00E94E30084E00E94E3008FE00E9459
:1013B000E30080E10E94E30081E10E94E30082E11A
:1013C0000E94E30080916501811145C01092570190
:1013D000109256018FEF80935A0180935B018093A6
:1013E0005C0180935D0180935E0180935F0181E0E9
:1013F0008093600110926201109261011092590174
:10140000109258018091BB049091BC04892B31F457
:1014100084E591E09093BC048093BB04E091520179
:10142000F0915301309721F084E591E09583848316
:1014300084E591E0909353018093520110926401EE
:101440001092630186E191E09093550180935401DD
:1014500081E080936501529A8BE092E0909357016E
:10146000809356018FED90E090936201809361012B
:101470008091B1049091B204A091B304B091B404EE
:10148000843C29E09207A105B10520F484EC99E0A1
:10149000A0E0B0E08093B1049093B204A093B304B1
:1014A000B093B4048DE892E09093BA048093B904A9
:1014B00084EC99E0A0E0B0E08093B5049093B6048A
:1014C000A093B704B093B80488EC8093AE040E9454
:1014D000C7008091AE040E947C010E944B014B0129
:1014E0005C0108EEC02E03E0D02EE12CF12C0E940E
:1014F0004B01681979098A099B09683E7340810587
:101500009105A8F331E0C31AD108E108F10848EECB
:10151000840E43E0941EA11CB11CC114D104E1044B
:10152000F10429F7CE01C1969BAF8AAF18EE412E88
:1015300013E0512E612C712CDE0111961D0180915A
:10154000C5019091C6018F3D910524F01092C6010E
:101550001092C5018FE00E9439017C019093DA015D
:101560008093D90180E10E9439016C019093D801E8
:101570008093D70181E10E9439018C019093D601BB
:101580008093D50182E10E9439015C019093D401DE
:101590008093D301B701FF0C880B990B0E94D70EE3
:1015A00020E030EC4FE754E40E942D0E20E030E0C4
:1015B00048E453E40E94630F0E949F0EF62E60934E
:1015C000D1017093D201B601DD0C880B990B0E94FA
:1015D000D70E20E030EC4FE754E40E942D0E20E0BF
:1015E00030E04FE753E40E94630F0E949F0EC62E27
:1015F0006093CE01EE24EA94E092CF01F092D00104
:10160000B501BB0C880B990B0E94D70E20E030EC83
:101610004FE754E40E942D0E4B015C0120E030E0C6
:101620004FE753E40E94630F0E949F0ED62E6093F3
:10163000CB01E092CC01F092CD0185E090E00E94D8
:101640002B04E82E8093CA018091C901E816D9F0D5
:10165000EE20C9F08091C7019091C80101968630B3
:1016600091052CF497FF05C085E090E002C090E062
:1016700080E09093C8018093C7010E94C700109238
:10168000C6011092C501E092C90184E090E00E9479
:101690002B04E82E8093C4018091C301E816D9F091
:1016A000EE20C9F08091C7019091C8010197863062
:1016B00091052CF497FF05C085E090E002C090E012
:1016C00080E09093C8018093C7010E94C7001092E8
:1016D000C6011092C501E092C3018091C7019091AB
:1016E000C8018230910509F4C8C194F4009709F447
:1016F0005AC1019709F473C18091AE040E947C0124
:1017000040E050E0452B09F41ACF0E94000017CFAB
:101710008430910509F4F3C10CF4DCC1059761F73D
:101720008091BB01811119C00E9470016093B301C7
:101730007093B4018093B5019093B60184E690E074
:10174000A0E0B0E08093B7019093B801A093B901F5
:10175000B093BA0181E08093BB010E9470010091B7
:10176000B3011091B4012091B5013091B601601B15
:10177000710B820B930B0091B7011091B80120916E
:10178000B9013091BA01601771078207930750F1D0
:101790000E9470016093B3017093B4018093B5010E
:1017A0009093B601E3E8F1E0ABEDB1E080E0908129
:1017B0002D91921789F0921718F49F5F90838F5F95
:1017C0009081291738F43FEF390F8F5F231708F402
:1017D000C2C130838A3030F4319623EB31E02E17CA
:1017E0003F0729F780917B01811113C00E9470018E
:1017F000A30192010E94FC0D3093780120937701A0
:1018000085E090E090937A018093790181E0809364
:101810007B010E947001A30192010E94FC0D809146
:10182000770190917801281B390B80917901909173
:101830007A012817390708F472C00E947001A301C9
:1018400092010E94FC0D30937801209377018091E2
:101850006F01811103C081E080936F010E94BB057D
:101860000FE7809F700111240E94BB058DAF30E807
:101870003F0D3EAF0E94BB05809F700111240E9466
:10188000BB05982E40E84F0D4CAF0E94BB05809FD2
:10189000600111240E94BB05F82E70E8872E8D0C84
:1018A0000E94BB05809F800111240E94BB0540E877
:1018B000410FE2E0AE2EB12CCF2CDD24DA94E82CDF
:1018C00005E010E0282F3FEF70E060E0C1010E94CA
:1018D0009204C92CF0ECDF2EECAC0AE010E02F2DC6
:1018E0003FEF482D65E070E0C1010E949204CDAC4D
:1018F000DD24DA94EEAC0FE010E0292D30EC4CAD95
:101900006AE070E0C1010E9492045BED251651E08F
:10191000350609F008F422C1C1010E94A80085EF34
:101920000E948C006FED70E088E190E00E947B05E2
:101930008C016FED70E08CE190E00E947B05E091FE
:101940006D01F0916E019F012F5F3F4F30936E014B
:1019500020936D012E2F22952F70E22FEE0FE20FB4
:10196000F0E0ED57FE4F41813281800F911F97FDCE
:101970000196959587955081FC01EE0FFF1FE80FAA
:10198000F91FE55FFD4F2081250F08F42FEF20831D
:101990002181240F08F42FEF21832281230F08F4E3
:1019A0002FEF2283A9CE8091CE019091CF01A091FB
:1019B000D0018FAB98AFA9AFB101CE01C7960E94FD
:1019C0008103EBE0F2E089819A81AB81819391936D
:1019D000A19328EA34E02E173F07A9F78DCE809116
:1019E000CE019091CF01A091D0018CAB9DABAEAB5D
:1019F000B801110F880B990B0E94D70E20E030EC34
:101A00004FE754E40E942D0E20E030E040EA51E41C
:101A10000E94630F0E949F0ECB0140E050E0BA018C
:101A20000E945405292F30E0AEEDB0E00E941E0E5A
:101A30002FEF30E040E050E00E94D20DB901660F78
:101A4000771F620F731F655F7D4FCE01C4960E94A2
:101A5000810320E030E040EA51E4C501B4010E9476
:101A6000630F0E949F0E1616170614F061E070E0D7
:101A7000862F80950E948C003FCE8091CE01909160
:101A8000CF01A091D00189AB9AABABABB801110FDC
:101A9000880B990B0E94D70E20E030EC4FE754E4FE
:101AA0000E942D0E20E030E040EA51E40E94630FD6
:101AB0000E949F0ECB016EED70E00E947B0599277E
:101AC000BC01660F771F680F791F655F7D4FCE01E0
:101AD000C196BDCF2091CE013091CF014091D00170
:101AE000CD0CB12CA12CDD24DA94EF2C0FED10E0FD
:101AF00070E060E08BE092E00E949204FDCDB801BE
:101B0000110F880B990B0E94D70E20E030EC4FE7A5
:101B100054E40E942D0E20E030E048E452E40E949C
:101B2000630F0E949F0ECB016230710514F482E0B6
:101B300090E04FEF50E060E070E00E945405C90E65
:101B4000B12CA12CDD24DA94EF2C0FED10E0292F1D
:101B50003FEF4F2DCDCF925090833CCE80E390E06D
:101B6000AAADBBAD2BE032E0FD01D90180FF05C07D
:101B700002C002900E9202900E928250D0F79040D6
:101B8000C0F7CDCEEEEAF4E08FEF808312821182AF
:101B9000148613868FEF9FEFDC0187839087A187E0
:101BA000B2870895052E97FB1EF400940E94E90D5C
:101BB00057FD07D00E94FC0D07FC03D04EF40C9497
:101BC000E90D50954095309521953F4F4F4F5F4F10
:101BD000089590958095709561957F4F8F4F9F4F99
:101BE00008950E941E0EA59F900DB49F900DA49F76
:101BF000800D911D11240895A1E21A2EAA1BBB1B72
:101C0000FD010DC0AA1FBB1FEE1FFF1FA217B307C8
:101C1000E407F50720F0A21BB30BE40BF50B661FDE
:101C2000771F881F991F1A9469F7609570958095A2
:101C300090959B01AC01BD01CF010895A29FB00119
:101C4000B39FC001A39F700D811D1124911DB29FF0
:101C5000700D811D1124911D08950E94410E0C9458
:101C6000290F0E94220F58F00E941B0F40F029F408
:101C70005F3F29F00C94120F51110C945D0F0C94DE
:101C8000180F0E943A0F68F39923B1F3552391F38B
:101C9000951B550BBB27AA2762177307840738F0DB
:101CA0009F5F5F4F220F331F441FAA1FA9F335D038
:101CB0000E2E3AF0E0E832D091505040E695001CEC
:101CC000CAF72BD0FE2F29D0660F771F881FBB1FA6
:101CD000261737074807AB07B0E809F0BB0B802D84
:101CE000BF01FF2793585F4F3AF09E3F510578F0B0
:101CF0000C94120F0C945D0F5F3FE4F3983ED4F305
:101D0000869577956795B795F7959F5FC9F7880F83
:101D1000911D9695879597F90895E1E0660F771FD5
:101D2000881FBB1F621773078407BA0720F0621B66
:101D3000730B840BBA0BEE1F88F7E09508950E9491
:101D4000A60E6894B1110C945D0F08950E94420F85
:101D500088F09F5798F0B92F9927B751B0F0E1F06C
:101D6000660F771F881F991F1AF0BA95C9F714C01C
:101D7000B13091F00E945C0FB1E008950C945C0FBB
:101D8000672F782F8827B85F39F0B93FCCF3869555
:101D900077956795B395D9F73EF4909580957095B2
:101DA00061957F4F8F4F9F4F0895E89409C097FB2F
:101DB0003EF490958095709561957F4F8F4F9F4F22
:101DC0009923A9F0F92F96E9BB279395F695879566
:101DD00077956795B795F111F8CFFAF4BB0F11F429
:101DE00060FF1BC06F5F7F4F8F4F9F4F16C08823D0
:101DF00011F096E911C0772321F09EE8872F762F06
:101E000005C0662371F096E8862F70E060E02AF046
:101E10009A95660F771F881FDAF7880F9695879532
:101E200097F9089597F99F6780E870E060E008955A
:101E30009FEF80EC089500240A94161617061806E2
:101E40000906089500240A941216130614060506BE
:101E50000895092E0394000C11F4882352F0BB0F4F
:101E600040F4BF2B11F460FF04C06F5F7F4F8F4FB2
:101E70009F4F089557FD9058440F551F59F05F3FED
:101E800071F04795880F97FB991F61F09F3F79F09C
:101E900087950895121613061406551FF2CF46951E
:101EA000F1DF08C0161617061806991FF1CF8695A0
:101EB0007105610508940895E894BB276627772784
:101EC000CB0197F908950E94760F0C94290F0E9478
:101ED0001B0F38F00E94220F20F0952311F00C9474
:101EE000120F0C94180F11240C945D0F0E943A0FDE
:101EF00070F3959FC1F3950F50E0551F629FF0015D
:101F0000729FBB27F00DB11D639FAA27F00DB11D75
:101F1000AA1F649F6627B00DA11D661F829F2227FE
:101F2000B00DA11D621F739FB00DA11D621F839F85
:101F3000A00D611D221F749F3327A00D611D231F5B
:101F4000849F600D211D822F762F6A2F11249F57A9
:101F500050409AF0F1F088234AF0EE0FFF1FBB1FAC
:101F6000661F771F881F91505040A9F79E3F51056B
:101F700080F00C94120F0C945D0F5F3FE4F3983ED9
:101F8000D4F3869577956795B795F795E7959F5F15
:101F9000C1F7FE2B880F911D9695879597F90895A7
:101FA000DB018F939F930E94F10DBF91AF91A29F90
:101FB000800D911DA39F900DB29F900D1124089547
:101FC00097FB072E16F4009407D077FD09D00E94E6
:101FD000FB0F07FC05D03EF4909581959F4F089527
:101FE000709561957F4F08950E941E0EB7FF08956A
:101FF000821B930B0895AA1BBB1B51E107C0AA1FAC
:10200000BB1FA617B70710F0A61BB70B881F991F99
:102010005A95A9F780959095BC01CD010895EE0FD2
:10202000FF1F0590F491E02D099481E090E0F89471
:082030000C941A10F894FFCF84
:102038003905000000003709370937091609120960
:102048000F0900000000CC0870086E081609120974
:1020580036010D0600003100F9183000FB302C0065
:102068001C472600825A1F006D6A170041760E0031
:04207800897D04005A
:00000001FF
